:020000040800F2
:20000000A8060020A51D0008C51C0008C71C0008C91C0008CB1C0008CD1C000800000000A7
:20002000000000000000000000000000CF1C0008D11C000800000000D31C0008D51C0008E8
:20004000C91D0008CD1D0008D11D0008D51D0008D91D0008DD1D0008E11D0008E51D0008C0
:20006000E91D0008ED1D0008F11D0008F51D0008F91D0008FD1D0008011E0008051E00089E
:20008000091E00080D1E0008111E0008151E0008191E00081D1E0008211E0008251E000878
:2000A000291E00082D1E0008311E0008351E0008391E000800000000000000003D1E00082A
:2000C000411E0008451E0008491E00084D1E0008511E0008551E0008E31C0008591E0008F4
:2000E000ED1C00085D1E00080000000000000000000000000000000000000000000000006C
:2001000000000000611E000800000000651E00080000000000000000691E00086D1E0008AB
:20012000711E0008751E0008791E00087D1E0008811E0008000000000000000000000000A4
:20014000851E0008891E00088D1E0008911E0008951E0008991E00089D1E0008A11E0008D7
:20016000A51E0008A91E0008AD1E000800000000B11E0008B51E0008B91E00080000000081
:20018000BD1E0008C11E0008C51E00082DE9F8430746DFF8F0463878DFF8E066C10626D570
:2001A000B06810F00C0F3BD13168880702D5B869002833D0316808074EBF3168616809098C
:2001C000386A01F0F001814206D200F01AFB002824D100F0F3F905E000F0F0F9386A00F0B2
:2001E00010FBD8B900F0A1FAB26800F094FA3878C10764D500F0DEF9082808D000F0DAF9FD
:200200000C2802BFF06800F0030003282CD13168880354D57868002840F006810120C7E1A1
:20022000B86988B1316841F00101316000F042FB05463068810700F1F48000F03BFB401B89
:200240000328F6D30320B3E1306840084000306000F030FB054631688807C8D500F02AFB03
:20026000401B0328F7D3EDE77868B0F5803F06D0B0F5A02F316807D141F48021316030685C
:2002800040F48030306006E021F480313160326822F480223260786860B100F00BFB054697
:2002A0003168880300F1C08000F004FB401B6528F6D3C7E700F0FEFA05463068810340F11B
:2002C000B38000F0F7FA401B6528F6D3BAE700F0F1FA401B0328C0F0D380B3E7F86880B129
:2002E000316841F48071316000F0E4FA05463068410500F1F58000F0DDFA401B0328F6D33B
:20030000A0E7306820F48070306000F0D3FA05463168480540F1A68000F0CCFA401B0328A9
:20032000F6D38FE7606840084000606000F0C2FA05466068810740F1A78000F0BBFA401BCF
:200340000328F6D37EE70528206806D140F004002060216841F0010105E04008400020605B
:20036000216821F004012160B86841F2893960B100F0A0FA05462168880700F1C28000F027
:2003800099FA401B4845F6D35CE700F093FA05462068810740F1B58000F08CFA401B48453A
:2003A000F6D34FE700F086FA401B0328C0F0BE8048E7A06840084000A06000F07BFA0546EB
:2003C000A068810740F1B68000F074FA401B0328F6D337E700F06EFA401B0328C0F0BC8091
:2003E00030E700F067FA401B0328C0F0DC8029E73168080103D4F06880088000F060F16871
:20040000DFF884040140F16000F054FA05463068810140F1CC8000F04DFA401B0328F6D345
:2004200010E700F0CBF8E2E6387881071AD500F0C1F8042809D000F0BDF80C2802BFF06883
:2004400000F0030002287FF449AF3168480502D5F868002874D07168386921F0F85141EA8C
:2004600000617160397808070ED5786900283FF459AF616841F00101616000F01BFA054656
:20048000606881077FF523AF3978480740D5B06DC1004FF000080AD4B06D40F08050B0657C
:2004A0004FF00108B06D00F0805000900098DFF8DC93D9F80010C8051AD4D9F8000040F408
:2004C0008070C9F8000000F0F5F90546D9F80010C8050DD400F0EEF9401B0328F6D3B1E6F6
:2004E0007068396920F0F85040EA01607060B9E7B86801287FF427AF206840F00100206064
:2005000032E7B8F1000F03D0B06D20F08050B065397888060ED5786A00283FF44AAFA168C4
:2005200041F00101A16000F0C5F90546A06881077FF538AFB86AD0B3B16801F00C010C29B2
:200540003FF46CAE0228306820F0807030607FF44FAF00F0AFF90546316888013FF53AAF69
:20056000386B796B401E090241EA0011F86A0143F86B801E0005400D41EA4051386C801E58
:20058000000600F07E400143B86B41EAC061F160316841F080713160F06840F08070F0608F
:2005A00000F088F90546306881017FF51AAF0020BDE8F283B06800F00C007047306840F05B
:2005C000080030603168386A21F0F001014331607068F96920F47F4040EA01207060704792
:2005E0002DE9F843DFF8A87206463868884600F00700404502D200F084F875D13178DFF87D
:200600007C52880705D5A968B06821F0F0010143A9603078C1075FD57068022802D1296821
:200620008A0307E0032802D129688A0102E018B929688A0703D457E02A68510554D5A96827
:20064000890840EA8100A86041F2893900F032F90446706802280BD1A86800F00C000828E2
:200660003AD000F027F9001B4845F5D3032031E003280AD1A86800F00C000C282CD000F08A
:2006800019F9001B4845F5D3F0E700282ED1A86810F00C0F20D000F00DF9001B4845F6D358
:2006A000E4E73078410705D5A968F06821F4E0610143A9603078010706D5A868316920F450
:2006C000605040EAC100A86000F02FF8AA6800F022F80020BDE8F283386800F007008045AE
:2006E000DFD200F00EF8DCD00120F3E7A86800F00C000428F0D000F0DDF8001B4845F5D37F
:20070000B4E73968C90848EAC1013960386800F00700404570475F49C2F30312895C584A73
:20072000C8401060002000F0CBB854498B680022002013F00C0F09D08B6803F00C030C2BB9
:2007400002BFCB6803F00303012B13D10A68130704D4524A1368C3F3032202E00A68C2F33D
:2007600003124F4B53F822208B6813F00C0F0ED110460CE08B6803F00C03042B08BF49488F
:2007800005D08B6803F00C03082B08BF46488B6803F00C030C2B1ED1C868CB68C3F30213BE
:2007A0005B1C00F00300022802D0032802D005E03C4800E03C48B0FBF3F201E0B2FBF3F206
:2007C000C868C0F306204243C868C0F34160401C4000B2FBF0F07047294800687047284827
:2007E0002D4A006813683149C3F3022206E02448294A006813682D49C3F3C222895CC840A6
:20080000704770B52A4E82B0054630680024C10002D500F069F80EE0306840F0805030604C
:20082000316801F080510091009800F05DF8316821F080513160B0F5007F04D1802D0CD958
:20084000A12D09D304E0802D88BF032405D801D1022402E0702D00D101240D480168C90816
:2008600044EAC1010160006800F00700A04201D0012076BD002076BD00000000001002401C
:200880009C00002090100240FFFFEEFE00700040002002404C1C000808100240941002400E
:2008A0005C1C00080024F40000127A00C01D00085810024001480068704700BFA00000209E
:2008C00010B508490A6804464FF47A70B2FBF0F000F089F8002221464FF0FF3000F05CF8E0
:2008E000002010BD9C000020DFF86C00006800F4C060704710B5DFF86020B0F5007F106821
:2009000000F4C06018D1B0F5007F1ED01168DFF84C00DFF84C4021F4C06141F4007111607C
:2009200032210368B3FBF4F0484380B151694B0548BF401EF9D40AE0B0F5806F05D01168A3
:2009400021F4C06141F480611160002010BD50694105FAD5032010BD007000409C000020C3
:2009600040420F000901002806D5304A00F00F00104400F8041C70472D4A115470472D4A33
:2009800013684FF6FF0100020B4000F4E0601843294908431060704738B5264B1C68C4F33E
:2009A0000223C3F10704052C28BF04241D1D072D34BF0023DB1E012505FA04F4641E214096
:2009C000994005FA03F35B1E1A401143BDE83440C8E7012200F01F01184BFFE78A404009CB
:2009E00043F82020704710B5401EB0F1807F01D3012010BD124C60600F214FF0FF30FFF78E
:200A0000B1FF0022A26007202060002010BD04280B4904D1086840F00400086070470A68E4
:200A200022F004020A60704700F00CB818ED00E000E400E00CED00E00000FA0500E100E087
:200A400010E000E07047000038B5040009D004F16805687808B900F028F800F00DF8012814
:200A600001D1012032BD606A08B100F023F800F014F821F02A0109E02420687020680168D8
:200A8000490849000160204600F0EEB8816000F014F8BDE8324000F072BA2068416821F409
:200AA0009041416020688168704700212970204600F05FBB204600F0FFB92068016841F042
:200AC000010101602046704770B504462168CA690B6812F00F0007D1950605D59D0603D51F
:200AE0002046BDE87040BFE28E68002804F1640564D0F00702D413F4907F5FD0D00707D525
:200B0000D80505D501200862A86840F00100A860900708D5F00706D5216802200862A868DF
:200B200040F00400A860500708D5F00706D5216804200862A86840F00200A86010070AD51C
:200B4000980601D4F00706D5216808200862A86840F00800A860A86800287DD0910604D5F0
:200B6000980644BF204600F07FFAA868010703D42168886841061BD5204600F05FFA20682F
:200B800081684A060FD500F068F860B10FF2C9418163286800F020FB00285DD02868816B7C
:200BA000BDE8704008472046BDE8704000F039BB204600F036FB0020A86070BD8868D6024E
:200BC0000CD540020AD54FF48010086220206871A8712046BDE8704000F024BB10062CD503
:200BE00018062AD56A79212A36D1B4F8520048B90A6822F080020A602068016841F04001D1
:200C0000016070BDA268B2F5805F04BF2069002808D1E26C1088C0F308000885E06C811C52
:200C2000E16404E0E06C421CE26400780885B4F85200411EA4F8521070BD50060CD5580679
:200C40000AD5086820F040000860202169712046BDE8704000F0E7BA70BD816821F04001BE
:200C60008160286870470000F8B5054688482B68884F1968DFF820C20140A86801432869BA
:200C8000014368690143E8690143196010265968E86821F440510143596000220024A869AC
:200CA000BB421CBF296A0843996821F4306108439860634579487A491FD1096801F0030112
:200CC00003294DD8DFE801F00237274B0126E969B1F5004F40F0B08066B1012E00F08A8052
:200CE000022E00F08A80042E00F08C80082E00F0928097E0FFF773FD86E0DFF8A8C1634539
:200D00000BD1096811F00C0127D0042913D0082901D00C291FE0022622E0DFF88CC1634545
:200D20000BD1096811F0300117D0102903D02029F1D030290FE0042612E0BB4210D1096884
:200D400011F4406109D0B1F5806FF4D0B1F5006FE1D0B1F5406F02D002E0002600E00826B8
:200D6000BB42B4D1310006D0022E08D0042E0FD0082E10D088E0FFF732FD002839D06A682B
:200D800002EB4201884202D31103814206D27BE0FFF7CBFCF1E74FF40040F0E736B1022E74
:200DA00007D0042E0BD0082E15D01AE0FFF717FD07E000213D4E16EB5200494107E0FFF7E3
:200DC000B4FC6A68010E560816EB00206141002300F02AFA06E0500800F50000B0FBF2F06A
:200DE00000E00124A0F54071314A91424CD22A68D0604AE0FFF7FBFC06E069682D4800EB4C
:200E000051000CE0FFF791FC69684A0802EB4002B2FBF1F207E06968480800F58030B0FBD8
:200E2000F1F200E001244FF6F0711140C2F3420001432868C16028E046B1012E09D0022EB0
:200E40000AD0042E0CD0082E15D01DE0FFF7C7FC08E0FFF7CCFC05E0696800EB51000EE053
:200E6000FFF763FC696800EB5100B0FBF1F0296880B2C86009E06968480800F50040B0FBAF
:200E8000F1F080B2D86000E001242046F2BD0000F369FFEF00800040003801400024F40052
:200EA000881002400044004000480040000024F400FD0F000048E80190F82410CA0706D58F
:200EC00002685368816A23F400330B43536090F824108A0706D502685368C16A23F4803375
:200EE0000B43536090F824104A0706D502685368016B23F480230B43536090F824100A07F0
:200F000006D502685368416B23F400430B43536090F82410CA0606D502689368816B23F4FB
:200F200080530B43936090F824108A0606D502689368C16B23F400530B43936090F824107E
:200F40004A0610D502685368016C23F480130B435360016CB1F5801F05D15368416C23F418
:200F6000C0030B43536090F824100A0606D502685168806C21F40021014351607047F8B568
:200F8000044604F16805002068606FF07E47FFF791FC0646206801680A0708D500973346DB
:200FA00000224FF40011204600F016F860B9206801684A070AD50097334600224FF4800127
:200FC000204600F009F808B10320F2BD20206870A87000202870F2BD2DE9F041069C054664
:200FE0000E4690461F462868C1693140B1420CBF01200020404518D114F1010FF3D024B11D
:20100000FFF758FCC01B8442EDD22868016821F4D071016000F00CF805F168002021417032
:20102000817000210170032000E00020BDE8F08128688168490849008160704701680A686E
:2010400022F490720A6001688A68520852008A60202180F86A107047806A00F152010022E3
:201060000A810A8000F0DDB838B500F15A0201685388147C222C28D18C8C8568B5F5805FF3
:2010800004BF0169002906D12340446D2380416D8B1C436504E0416D4D1C456523400B70EC
:2010A0001188491E118089B269B901680B6823F490730B6001688B685B085B008B6020219B
:2010C000117400F028F9002032BD088B40F008000883022032BD000080B53B48816841F032
:2010E00001018160816801F0010100910099016841F080510160006800F0805000900098EB
:201100000320FFF73CFC002200216FF00B00FFF743FC002200216FF00A00FFF73DFC00229F
:2011200000216FF00900FFF737FC002200216FF00400FFF731FC002200216FF00300FFF799
:201140002BFC002200216FF00100FFF725FCBDE80840002200214FF0FF30FFF71DBC0068D9
:201160001A49884204D11A48016841F400410160704700681749884200D0704700B51248EC
:2011800087B0016841F4003101600C21006800F40030009002220098019101200390032179
:2011A000072004910590029201A94FF0904000F0B3F8002200212620FFF7EEFB2620FFF752
:2011C00008FC07B000BD00005810024000280040901002400044004038B500F124020024F7
:2011E0005178022903D004209061012412E001680B6823F00E030B60012301680D686D081A
:201200006D000D6000F008F8012353701470516901B18847204632BD116A8B40D1694B60DE
:2012200070477047704770471B4213D1094236D12AB18446B0FBF2F002FB10C2704700F097
:2012400055B9FCD30022002370470B000200002100207047904271EB030CF6D370B5B1FADA
:2012600081F4B3FA83F52C1BA340C4F1200532FA05F63343A2405FF00046E64002E05B0851
:201280005FEA3202841A71EB030524BF204629467641F4D302000B003000002170BD012AE3
:2012A000CFD970B5140C20D0B1FA81F4B2FA82F5C4F120046419B4F12006D6D3B2405FF003
:2012C0000044F440002502E052085FEA3303C61A71EB020E24BF3046714664416D41F3D341
:2012E00002000B002000290070BD0C46B1FBF2F102FB11452D0445EA1045B5FBF2F402FBEF
:20130000145580B240EA0545B5FBF2F002FB105240EA044070BD70472DE9F84F4FF0000ED1
:201320006A4BDFF8AC81DFF8AC914FF00F0A83460A4633E0684DAB4514BF072504258D40C2
:20134000254348F82C50C1431C6801EA040C5468E50348BF40EA0C0CC3F800C05C6801EACF
:20136000040C5468A50348BF40EA0C0CC3F804C09C6801EA040C5468E50248BF40EA0C0C46
:20138000C3F808C0DC6801EA040C51688C0248BF40EA0C0CC3F80CC00EF1010E116831FAC2
:2013A0000EF000F07F80012000FA0EFC1CEA0100F2D05468022C18BF122C4FEA8E010ED1AC
:2013C0004FEADE040BEB840401F01C05266A0AFA05F7BE43176907FA05F5354325624FEA1E
:2013E0004E040325DBF800701679A540ED4306F003062F40A6403E43CBF800605668012EA7
:2014000018BF022E03D0112E18BF122E13D1DBF80870D6682F40A6403E43CBF80860DBF85B
:2014200004605768C7F3001726EA0C0607FA0EF73E43CBF80460DBF80C602E40956805FA3F
:2014400004F43443CBF80C405468E400A4D5D9F8004044F00104C9F800404FEA9E0CD9F8F6
:20146000005005F00105009501F00C01009C58F82C500AFA01F425EA0404BBF1904F08BFC4
:2014800000250ED0154DAB4508BF012509D0144DAB4508BF022504D0124DAB457FF44AAF63
:2014A00003254CE7BDE8F18F0AB1816170478162704742695140416170470B4A1368034214
:2014C0001CBF106000F00BB970470000000401400800014060100240001000480004004872
:2014E00000080048000C0048140401407047000010B500F013F900F03BF800F090F87E4C12
:201500007E48A067FF210020E0677F20C4F8800004F184000160002141608160C16001619C
:2015200004F1780000F00CF900B1FEE77448A0604FF4E130E060002020616061A0610C20D4
:20154000E061002020626062A062E06204F10800FFF77AFA00B1FEE76A48017834F811003D
:2015600000F061F94FF400516748FFF7A2FFF3E700B5AFB014200590012160200D900791B9
:201580000B9101200021109011900C912820022112900F910220072114901590139105A8FE
:2015A000FEF7F4FD00B1FEE70F21009103200021019002910391049168460421FFF710F88C
:2015C00000B1FEE74FF00210169000214FF480702D901F9116A800F035F900B1FEE74B48B8
:2015E000016821F0180101604FF40070FFF782F900B1FEE7FFF7F0F84FF47A71B0FBF1F0A5
:20160000FFF7F1F90420FFF702FA00F05DFA002200214FF0FF30FFF7BFF92FB000BD30B5AD
:201620003B48394C87B0016841F0040101604FF40055026802F0040205920599016841F0A2
:2016400001010160026802F00102059200220599016841F0020101609021006800F0020068
:20166000059005984FF09040FFF71EFF00224FF400512046FFF718FF26480190002102913A
:20168000009569462448FFF747FE902000900121002001910290039069464FF09040FFF772
:2016A0003BFE402000210090019102914FF090406946FFF731FE01200021019002910391DE
:2016C000009569462046FFF727FE002200212820FFF762F92820FFF77CF907B030BDB0F56D
:2016E000005F07D10748017803290EBF00220278521C027070470000000000200028004037
:2017000000440040A400002000040048901002404C100240000011100008004880B50748C0
:20172000016841F4807101600320FFF728F90020FFF7C6F8FFF7D0FC002002BD00200240A8
:2017400038B504000ED094F8210028B9002184F820102046FFF703FD00F03CF8FF2518B1F2
:2017600000F032F8012032BD2168DFF880008A6802408A6021688A68636820690343A06923
:2017800003431A438A602168E068086120680169A26841EA024101612068C16821F0800173
:2017A000C1602068C16C89088900C1642168CA6CE369606903431A43CA640121206845621E
:2017C00084F82110002032BD20684562042184F821107047022084F82100CA2021684862B9
:2017E000532022685062204602E00000BFFF8FFF38B504462068C1684A0612D44FF0FF3218
:20180000C260FFF757F805462068C168480608D4FFF750F8401B40F2E9318842F4D30320A2
:2018200032BD002032BD38B50446FFF743F814F1010F054618BF641CFFF73CF8401BA04224
:20184000FAD331BD2DE9F047064682B03068DFF8947300240105A0461BD5706C58B1B0F502
:20186000000F03D0B0F5400F09D010E03A6842F480323A6004E0002100F024F904463CB954
:20188000F96F706C21F440010143F96701E00124A046306881032BD5F86CC1004FF0000995
:2018A0000AD4F86C40F08050F8644FF00109F86C00F0805000900098DFF82C53296841F4D9
:2018C00080712960FEF7F6FF82462868C10500F1C780FEF7EFFFA0EB0A000228F5D90324B7
:2018E000A046B9F1000F03D0F86C20F08050F8643178C80705D5F96F306A890840EA810145
:20190000F9673078810705D5F96F706A21F00C010143F9673078410705D5F96FB06A21F0FC
:2019200030010143F9673078810605D5F96FF06A21F440610143F9673068810505D5F96F4D
:20194000F06B21F440210143F9673068410505D5F96F306C21F440110143F967307841065D
:2019600005D5F96F306B21F440510143F9673078010605D5F96F706B21F440410143F9673A
:201980003068C10505D5F96FB06B21F440310143F967306881041BD5F96FB06C00F08CF85D
:2019A000B06CB0F1006F0CD100F081F810E0FEF781FF001B41F2893188426ED34FF00308F3
:2019C0008FE7B0F1806F03D100F07BF800B180463068010311D5F96FF06C00F06DF8F06C5C
:2019E000B0F1006F02D100F062F806E0B0F1806F03D100F066F800B180463068410311D5E9
:201A0000F96F306D00F058F8306DB0F1006F02D100F04DF806E0B0F1806F03D100F051F849
:201A200000B18046306841040ED5F96F706D21F040510143F967706DB0F1805F04D102218F
:201A400000F040F800B180463068010405D5F96FB06D21F080410143F9674046BDE8F687CD
:201A6000002C7FF43DAFDFF88451286810F440701CBFF16D88420BD02868296841F4803106
:201A8000296020F440702A6822F480322A602860C00705D5FEF70EFF04462868810786D52D
:201AA0002968F06D21F440710143296019E7386840F480103860704721F040610143F9679C
:201AC00070470121301D05E04948016841F00401016070472DE9F0410546454F28680C46AB
:201AE000F968002611F0030F0DD0F96801F00301814237D1B0B3F8686968C0F30210401C99
:201B0000884213D02EE0012804D02BD3032823D01ED327E039688A0724D5F9686A6821F08A
:201B200073010843521E40EA0210F860386820F080603860FEF7BEFE8046396808013CD588
:201B4000FEF7B8FEA0EB08000328F6D3032644E039684A05E1D405E03A689103DDD43968F4
:201B60004A03DAD4012638E0012C3A690AD1214802402869801E000542EA0121400D41EADB
:201B8000405109E01C4802406869801E000642EA012100F07E4001433961386840F0806026
:201BA0003860FEF787FE04463968080111D4FEF781FE001B0328F7D3C8E7A968002CD3D126
:201BC0003A690E480240E86842EA012141EAC061E2E73969A869014339613046BDE8F081FA
:201BE000000000000C100240007000409010024000100240FF809FFFFF80FFF9FF80FF078A
:201C00000E48016841F47001016000220C49086840F0010008608A600A480A6802400A6024
:201C20004FF48050C8600022086820F4802008608A614FF0006004490860704788ED00E070
:201C400000100240FFFFF6EA08ED00E000000000000000000102030406070809A086010030
:201C6000400D0300801A060000350C0040420F0080841E0000093D0000127A000024F40096
:201C800000366E010048E801006CDC0230B5016884684218416802EB5103C9070BD54C4466
:201CA00009E012F9011B12F8015B002904F8015B05D5491CF9D19A42F3D10C3030BD491EF4
:201CC000F1D5F8E77047FEE7FEE7FEE7FEE770477047704780B500F00DF8BDE80140FEF7EA
:201CE000A3BE0148FEF7F0BE080000204FF40050FFF7E3BB02480168491C0160704700BF59
:201D0000A000002010B5074979441831064C7C44163404E00A68081D114488470146A142C3
:201D2000F8D110BD2C000000380000004EF68851CEF20001086840F470000860BFF34F8FBF
:201D4000BFF36F8F4FF00070E1EE100A704700003DFFFFFF74010000220000000000002093
:201D600000F00BF8002801D0FFF7CCFF0020AFF30080FFF7BDFB00F002F80120704700F014
:201D800001B800000746384600F002F8FBE7000080B5AFF30080024A11001820ABBEFBE7BC
:201DA000260002000148804701480047011C0008B51D0008AFF30080FFF7B8FFFFF7D0FFC8
:201DC0000000000001020304FFF7FEBFFFF7FEBFFFF7FEBFFFF7FEBFFFF7FEBFFFF7FEBFC7
:201DE000FFF7FEBFFFF7FEBFFFF7FEBFFFF7FEBFFFF7FEBFFFF7FEBFFFF7FEBFFFF7FEBF4B
:201E0000FFF7FEBFFFF7FEBFFFF7FEBFFFF7FEBFFFF7FEBFFFF7FEBFFFF7FEBFFFF7FEBF2A
:201E2000FFF7FEBFFFF7FEBFFFF7FEBFFFF7FEBFFFF7FEBFFFF7FEBFFFF7FEBFFFF7FEBF0A
:201E4000FFF7FEBFFFF7FEBFFFF7FEBFFFF7FEBFFFF7FEBFFFF7FEBFFFF7FEBFFFF7FEBFEA
:201E6000FFF7FEBFFFF7FEBFFFF7FEBFFFF7FEBFFFF7FEBFFFF7FEBFFFF7FEBFFFF7FEBFCA
:201E8000FFF7FEBFFFF7FEBFFFF7FEBFFFF7FEBFFFF7FEBFFFF7FEBFFFF7FEBFFFF7FEBFAA
:201EA000FFF7FEBFFFF7FEBFFFF7FEBFFFF7FEBFFFF7FEBFFFF7FEBFFFF7FEBFFFF7FEBF8A
:201EC000FFF7FEBFFFF7FEBF06F401FA006400328100E90001093DFA00FFFFFFFFFFFFFF6D
:201EE000FFFFFFFFFFFFFFFFFFFFFFFFFFFFFFFFFFFFFFFFFFFFFFFFFFFFFFFFFFFFFFFF02
:201F0000FFFFFFFFFFFFFFFFFFFFFFFFFFFFFFFFFFFFFFFFFFFFFFFFFFFFFFFFFFFFFFFFE1
:201F2000FFFFFFFFFFFFFFFFFFFFFFFFFFFFFFFFFFFFFFFFFFFFFFFFFFFFFFFFFFFFFFFFC1
:201F4000FFFFFFFFFFFFFFFFFFFFFFFFFFFFFFFFFFFFFFFFFFFFFFFFFFFFFFFFFFFFFFFFA1
:020000040803EF
:00000001FF
